:020000040800F2
:100000007806002039030008811200087D120008DC
:100010007F120008470400082D14000800000000AB
:100020000000000000000000000000008512000831
:10003000490400080000000083120008871200082D
:100040005703000857030008570300085703000828
:100050005703000857030008570300085703000818
:100060005703000857030008570300085703000808
:1000700057030008570300085703000857030008F8
:1000800057030008570300085703000857030008E8
:1000900057030008570300085703000857030008D8
:1000A00057030008570300085703000857030008C8
:1000B00057030008570300085703000857030008B8
:1000C00057030008570300085703000857030008A8
:1000D0005703000857030008570300085703000898
:1000E00057030008570300080000000057030008EA
:1000F0005703000857030008570300085703000878
:100100005703000857030008570300085703000867
:100110005703000857030008570300085703000857
:100120005703000857030008570300085703000847
:100130005703000857030008570300085703000837
:1001400057030008570300080000000000000000EB
:100150005703000857030008570300085703000817
:100160005703000857030008570300085703000807
:100170005703000857030008570300080000000059
:1001800057030008570300085703000857030008E7
:1001900057030008570300085703000857030008D7
:1001A00057030008570300085703000857030008C7
:1001B00057030008570300085703000857030008B7
:1001C00057030008570300085703000857030008A7
:1001D0005703000857030008570300085703000897
:1001E0005703000857030008570300085703000887
:1001F0005703000857030008570300085703000877
:100200005703000857030008570300085703000866
:100210005703000857030008570300085703000856
:1002200057030008570300085703000800000000A8
:100230005703000857030008570300085703000836
:100240005703000857030008570300085703000826
:100250005703000857030008570300085703000816
:100260005703000857030008570300085703000806
:1002700057030008570300085703000857030008F6
:100280005703000857030008570300080000000048
:10029000570300085703000800F002F800F03CF88C
:1002A0000AA090E8000C82448344AAF10107DA45D1
:1002B00001D100F031F8AFF2090EBAE80F0013F0E7
:1002C000010F18BFFB1A43F0010318478C120000FE
:1002D000AC120000103A24BF78C878C1FAD852078F
:1002E00024BF30C830C144BF04680C6070470000B0
:1002F0000023002400250026103A28BF78C1FBD82F
:10030000520728BF30C148BF0B6070471FB501F0CE
:1003100015F91FBD10B510BD00F05CF81146FFF7D0
:10032000F5FF01F095F800F07AF803B4FFF7F2FF5B
:1003300003BC00F081F800000A4880470A48804763
:100340000A480047FEE7FEE7FEE7FEE7FEE7FEE7B6
:10035000FEE7FEE7FEE7FEE705480649064A074BCB
:10036000704700004D0400081913000899020008A6
:100370007800002078060020780200207802002013
:100380004FF0000200B5134694469646203922BF2E
:10039000A0E80C50A0E80C50B1F12001BFF4F7AF79
:1003A000090728BFA0E80C5048BF0CC05DF804EB5B
:1003B000890028BF40F8042B08BF704748BF20F8C9
:1003C000022B11F0804F18BF00F8012B70477047C7
:1003D00070477047754600F02BF8AE460500694639
:1003E000534620F00700854618B020B5FFF7B4FF4C
:1003F000BDE820404FF000064FF000074FF0000826
:100400004FF0000B21F00701AC46ACE8C009ACE8A6
:10041000C009ACE8C009ACE8C0098D46704710B50A
:100420000446AFF300802046BDE81040FFF77DBFD3
:10043000004870471400002001491820ABBEFEE7B9
:10044000260002007047FEE7704700000548054996
:100450000839026822F00202026008688004FCD5B4
:10046000704700000C4802582DE9F84F03247F4DD7
:1004700000234FF001094FF0B04B4FF00F0AEDE0B1
:1004800009FA03F632407AD00F7907F00307012FFB
:1004900001D0022F19D187684FEA430ED1F80CC062
:1004A00004FA0EF827EA08070CFA0EFC4CEA070CCF
:1004B000C0F808C0D0F804C00F792CEA060CC7F3C6
:1004C00000179F4047EA0C0747600E79F643B607CE
:1004D00002D18E68012E0BD0C6684FEA43088F68A0
:1004E00004FA08FC26EA0C0607FA08F73743C76047
:1004F0000E7906F00306022E12D1DE080F694FEACC
:10050000437C00EB8606B646366A4FEADC6C0AFA94
:100510000CF807FA0CF726EA08063743CEF82070E5
:100520000F7906684FEA430807F0030704FA08FC4E
:1005300007FA08F726EA0C06374307604E6816F4F8
:10054000403F1CD04A4E376847F002073760366894
:100550009F0706F00206009623F0030606F1B04658
:10056000B6463F0FD6F80864DFF808810AFA07FCA0
:10057000404526EA0C0603D14FF0000C41E06CE048
:10058000DFF8F4C0604502D14FF0010C39E0DFF82C
:10059000ECC0604502D14FF0020C32E0DFF8E0C061
:1005A000604502D14FF0030C2BE0DFF8D8C0604566
:1005B00002D14FF0040C24E0DFF8CCC0604502D13A
:1005C0004FF0050C1DE0DFF8C4C0604502D14FF0CC
:1005D000060C16E0DFF8B8C0604502D14FF0070CFA
:1005E0000FE0DFF8B0C0604502D14FF0080C08E022
:1005F000DFF8A4C0604502D14FF0090C01E04FF0D4
:100600000A0C0CFA07FC4CEA060CCEF808C44F683A
:10061000DBF80060FF0226EA020600D516435F46BB
:10062000CBF80060D1F804C0DBF804605FEA8C2CE2
:1006300026EA020600D516437E606E684F6826EAF9
:100640000206BF0300D516436E602E684F6826EA87
:100650000206FF0300D516432E605B1C0A6832FABF
:1006600003F67FF40DAFBDE8F88F0000800000585E
:10067000F4440258000002580004025800080258CE
:10068000000C0258001002580014025800180258BA
:10069000001C025800200258002402580AB181614F
:1006A00070470904FBE7000001480068000C704730
:1006B0000010005C014880687047000000000020C6
:1006C000054901EB80010548D1F88014814201D130
:1006D000002070470120704700600258000300802E
:1006E000034A41F4407102EB8000C0F800147047E7
:1006F00000600258024881680278114481607047A6
:1007000000000020032010B500F0C6F800F046FA03
:100710000F4A104914681368C4F3032203F00F034F
:100720008A5CC95C02F01F0201F01F01D0400A4A36
:1007300020FA01F11160094908600F2000F010F85B
:1007400008B1012010BD00F079F8002010BD0000B4
:100750001844025846150008100000200C00002024
:1007600070B50D4D04462878A0B14FF47A71B1FBF5
:10077000F0F00A490968B1FBF0F000F06CFD48B9EF
:10078000102C07D200222146501E00F065F80020F0
:100790006C6070BD012070BD000000200C000020C6
:1007A000154BF0B5083B427813491A600B680A1FD5
:1007B00023F001030B6043681360057BC67A827ADD
:1007C000437B2D07847B45EA0665C77B90F809C00B
:1007D000067A90F800E045EAC24040EA834040EAE9
:1007E000444040EA074040EA0C2040EA460040EA24
:1007F0000E000860F0BD0000A0ED00E0BFF35F8FC9
:10080000044800210368034A23F4803303607032F4
:100810001160704724ED00E0074A40F001000649EE
:1008200070321060086840F480300860BFF34F8F6A
:10083000BFF36F8F7047000024ED00E0054808B556
:10084000016841F002010160006800F002000090C0
:1008500008BD0000F44402580E4BF0B41B680D466E
:10086000C3F30223C3F10706042E00D90426191D81
:10087000072901D2002300E0DB1E012404FA06F15F
:100880009C40491E2940641E994014402143F0BCFD
:1008900000F0CDBD0CED00E0064900F0070210B5F8
:1008A0004FF6FF040868044B204040EA022018433A
:1008B000086010BD0CED00E00000FA052DE9F041E4
:1008C0001E4C0546206800F007000628206804D06A
:1008D00000F03F00A84228D12EE020F03F0028433E
:1008E0002060FFF7E7FE154F4FF47A780646083F81
:1008F00005E000BFFFF7DEFE801B404515D83868D5
:10090000C0438004F6D41E2D05D02E2D03D01D2DFE
:1009100001D02D2D10D1FFF7CDFE0546464607E04C
:10092000FFF7C8FE401BB04202D90120BDE8F081AC
:100930002068C043C003F3D40020F7E70C480258F6
:100940002DE9F05F04000F467ED0DFF83882D8F83A
:10095000000000F00F00B8420CD2D8F8001021F0CF
:100960000F013943C8F80010D8F8000000F00F005C
:10097000B84269D12078844D40070AD5206929689A
:1009800001F07001884204D9296821F07001014307
:10099000296020787C4E361D00070AD560693168D1
:1009A00001F07001884204D9316821F070010143DF
:1009B00031602078C0060AD5A069316801F4E06191
:1009C000884204D9316821F4E06101433160207824
:1009D000DFF8B4B180060BF1080B0CD5E16958467D
:1009E000DBF8002002F07002914204D9026822F084
:1009F00070020A430260207880070AD5E0682968FF
:100A000001F00F01884204D9296821F00F01014348
:100A100029602078C0073ED05B49A2682868183951
:100A200020F47060104328606068022818D0032802
:100A300019D00968012819D0490700294ADADFF8D6
:100A400048A1AAF1080A00E044E0DAF8002022F008
:100A500007020243CAF80020FFF72CFE814612E08D
:100A600009688903E9E709688901E6E7C905E4E758
:100A7000FFF720FEA0EB090141F28830814202D944
:100A80000320BDE8F09F6168DAF8000000F038004C
:100A9000B0EBC10FECD1207880070AD5E068296857
:100AA00001F00F01884204D2296821F00F010143AF
:100AB0002960D8F80010404601F00F01B9420BD967
:100AC000016821F00F0139430160006800F00F0058
:100AD000B84201D00120D4E7207840070AD5206928
:100AE000296801F07001884204D2296821F0700160
:100AF00001432960207800070AD56069316801F058
:100B00007001884204D2316821F0700101433160E4
:100B10002078C0060AD5A069316801F4E0618842F6
:100B200004D2316821F4E06101433160207880060D
:100B30000CD5E1695846DBF8002002F070029142C2
:100B400004D2026822F070020A43026000F026F824
:100B50000E492A682B68C2F3032203F00F038A5C54
:100B6000C95C02F01F0201F01F01D040084A20FAC0
:100B700001F111600749086007480068BDE8F05FAF
:100B8000FFF7EEBD00200052184402584615000839
:100B9000100000200C00002004000020454970B522
:100BA00045480968434B103B11F0380208D0011149
:100BB000082A03D0102A0BD0182A0BD0084670BD83
:100BC00019688906FBD51968C1F3C101C84070BD19
:100BD0003A4870BD3749374D18310C1D24350A6825
:100BE000096826682D6802F0030406F00102C1F3CB
:100BF0000511C5F3CC0515FB02F200EE102AB8EE84
:100C0000400AE9B32F4ADFED2E0AB7EE001A6CB1A5
:100C1000DFED2D1A012C01D0022C43D002EE101A68
:100C20001068F8EE422A81EEA22A1EE01C68A40693
:100C300011D51B6801EE901A1168C3F3C103F8EED9
:100C4000612AD84001EE900AC1F30800F8EE611A5B
:100C500081EEA22A0BE001EE901ADFED1C2A00BF04
:100C6000F8EE611A106882EEA12AC0F3080001EEC6
:100C7000900AF8EE611A40EE201A31EE810A00E087
:100C800015E022EE000A1068C0F34620401C00EE7A
:100C9000900AF8EE600A80EE201ABCEEC10A10EE4F
:100CA000100A70BD01EE901ADFED092AD8E7002086
:100CB00070BD0000104402580090D00340787D01C0
:100CC00000000039304402580024744A0024744C57
:100CD00020BCBE4B2DE9F05F04007DD0FF4F207893
:100CE000FE4D1837DFF8F493103DC00748D0D9F80F
:100CF0000000396800F03800102815D0182803D1FA
:100D000001F0030002280FD06068B0F5803F12D0D8
:100D100010B1B0F5A02F18D0286820F480302860DA
:100D2000286820F4802009E02868800328D56068BE
:100D30000028D2D024E0286840F480302860606821
:100D400088B1FFF7B7FC064609E0286840F4802028
:100D50002860F0E7FFF7AEFC801B64286FD8286896
:100D60008003F7D50CE0FFF7A5FC064605E000BFC1
:100D7000FFF7A0FC801B6428F0D828688003F7D414
:100D8000207841F20308D54E0C3E800769D5D9F88A
:100D90000000396810F038000ED0182801D18807FB
:100DA0000AD0E06890B3296821F019010143296055
:100DB000FFF780FC824631E02868400702D5E068F2
:100DC00000288AD0E168286820F0190008432860CC
:100DD000FFF770FC824607E0DFE000BFFFF76AFC28
:100DE000A0EB0A000228B9D828684007F6D500BF52
:100DF000FFF75AFC40451BD82069402812D03168C3
:100E000021F47C3141EA003030602AE018E000BF74
:100E1000FFF750FCA0EB0A0002289FD82868400783
:100E2000F6D5E5E7306820F47C3040F40030EBE79D
:100E3000207C316821F0FE4141EA0060E4E70DE1E9
:100E4000286820F001002860FFF734FC824605E0A6
:100E5000FFF730FCA0EB0A0002288DD82868400775
:100E6000F6D42078C0065DD5D9F80000DFF86CB262
:100E7000396800F03800ABF1040B082810D01828AE
:100E800003D101F0030001280AD0E0690028286896
:100E900038D040F080002860FFF70CFC824623E049
:100EA0002868C00523D5E069802876D11FE0206A34
:100EB000202821D0316821F0F84141EA806030607B
:100EC00030E000BF94F82010DBF8002022F07C52C4
:100ED00042EA0161CBF8001024E000BFFFF7EAFB13
:100EE000A0EB0A00022898D82868C005F6D5FFF7BD
:100EF000DBFB4045E6D8DAE7306820F0F84040F008
:100F00008040DCE720F080002860FFF7D3FB064636
:100F100005E000BFFFF7CEFB801B02289DD82868A4
:100F2000C005F7D42078000729D56C486169643082
:100F300000298046016811D041F001010160FFF7EE
:100F4000B9FB064605E000BFFFF7B4FB801B022893
:100F5000C9D8D8F800008007F6D510E021F00101CB
:100F60000160FFF7A7FB064605E000BFFFF7A2FB05
:100F7000801B022872D8D8F800008007F6D42078A9
:100F8000800623D5A0690028286810D040F480503E
:100F90002860FFF78FFB064605E036E1FFF78AFB86
:100FA000801B02285AD828688004F7D50EE020F468
:100FB00080502860FFF77EFB064604E0FFF77AFBCF
:100FC000801B02284AD828688004F7D4207840077C
:100FD0004FD5DFF80C81D8F8001041F48071C8F8C3
:100FE0000010FFF767FB064605E000BFFFF762FB56
:100FF000801B642832D8D8F80000C005F6D5374EDB
:10100000A068603601280AD008B1052813D03068DE
:1010100020F001003060306820F0040002E0306809
:1010200040F001003060A06841F2883A90B1FFF7CB
:1010300041FB80460AE0306840F004003060EEE793
:10104000FFF738FBA0EB0801514507D8306880074F
:10105000F6D50EE0FFF72EFB804607E084E000BFE8
:10106000FFF728FBA0EB080151457DD830688007C9
:10107000F6D4606AB0B3DFF86480D9F8001008F1E4
:1010800020084FF6F87B08F10409C1F3C2010329D7
:10109000A8F1040A69D00228286820F0807028602E
:1010A00003D0FFF707FB044684E0FFF703FB064687
:1010B00005E000BFFFF7FEFA801B022877D82868FA
:1010C0008001F7D4E26A40F2F331386854F8283FDF
:1010D000884340EA02101843386004E01044025884
:1010E00000480258B5E0217B434622894FF4FE0CAC
:1010F000208A4FF0FE474902267D521E401EA1F570
:101100000071C2F308088AB2761E0CEA004042EA77
:1011100008020243504607EA06610A431A60DAF8F9
:10112000002022F00102CAF80020D9F80020266A27
:1011300022EA0B0242EAC602C9F80020DAF80010DF
:10114000A26921F00C011143CAF800100168E2699C
:1011500021F0020111430160016841F48031016016
:10116000016841F4003101E021E027E001600168FD
:1011700041F480210160016841F0010101602868AB
:1011800040F080702860FFF795FA044605E000BF44
:10119000FFF790FA001B022809D828688001F7D5CC
:1011A00057E000BFFFF786FA001B022802D9032090
:1011B000BDE8F09F28688001F4D44AE0396801282E
:1011C000D8F8000021D0A26A01F0030393421CD199
:1011D000E26AC1F305118A4217D1216BC0F30802FC
:1011E000491E8A4211D1616BC0F34622491E9142C9
:1011F0000BD1A16BC0F30642491E914205D1E16BB0
:10120000C0F30660491E814201D00120D0E7A16CE5
:101210004E46D9F80000C0F3CC00814219D0DAF86C
:101220000000554620F00100CAF80000FFF742FA1E
:101230004FEA0007FFF73EFAB842FBD0A26C3068D5
:1012400020EA0B0040EAC2003060286840F001004C
:1012500028600020ACE7401EB0F1807F10B501D3BC
:10126000012010BD4FF0E02460610F21601700F0F5
:10127000DEF80020A0610721216110BDFEE7FEE736
:10128000FEE770477047FFF735BA000010B59CB015
:101290004C216846FFF774F8202113A8FFF770F877
:1012A0000420FFF70BFB1A490A681A4822F00102D2
:1012B0000A600968016821F4404141F480410160FD
:1012C0000168002401F440411B9101688904FCD5A8
:1012D000402209940220009001216846CDE90312C2
:1012E000FFF7F8FC08B172B6FEE73F20CDE9130422
:1012F0001594012113A816941794189419941A940C
:10130000FFF71EFB002801D072B6FEE71CB010BD2F
:101310002C040058184802583A48F0B53949036877
:101320007839394A43F470030360086840F01000CC
:101330000860106800F00F00072804D2106820F041
:101340000F00C01D106031490020304C10340B6874
:101350002F4D43F001030B6020600B682B400B60A6
:10136000136803F00F03072B04D9136823F00F034E
:10137000DB1D1360254C274A1834274B261D371DCB
:101380002060224C254D28343060261D3860371DE2
:1013900023603B1D35601C1D3A60251D2E1D186005
:1013A000331D22602860326018600B684FF0B04235
:1013B000164C23F480230B6060342060D2F8E400E4
:1013C000174940F48040C2F8E40008686FF30F004A
:1013D000B0F1005F03D213490120C1F808010B48A6
:1013E000D4300168C9040BD4026843F2D2010E4B19
:1013F00042F4805202601960016821F4805101605A
:10140000F0BD000088ED00E00020005200440258CA
:101410007FEDF6EA80020101000202020000FF01F6
:101420000010005C0080005100400052FEE70907F8
:1014300000284FEA116104DB00F1E02080F800147D
:10144000704700F00F0000F1E02080F8141D704795
:1014500086B000250095019502950395FFF7CEF91A
:101460004FF001088DF80C801F218DF8081087229D
:101470008DF809208DF80D8068468DF800808DF874
:101480000A508DF80E508DF8015001958DF80B50D3
:101490008DF80F50FFF784F90420FFF7BDF9254FB1
:1014A0004FF6FF7420463968090403D5011EA0F1E8
:1014B0000100F8DC002801DA72B6FEE7FFF722F936
:1014C000FFF7E4FE1B4EE036306840F000703060FD
:1014D000306800F0007000900020FFF7F1F8002164
:1014E0000846FFF7FDF83868000403D4201EA4F175
:1014F0000104F8DC002C01DA72B6FEE7142168461C
:10150000FEF73EFF306840F0010030603068012295
:10151000094E140200F00100214605903046FFF705
:10152000BDF800946946CDE9018530460395FEF784
:101530009BFFFEE700440258000002584FF0407045
:10154000E1EE100A704700000000010203040102EE
:1015500003040607080900007815000800000020B1
:1015600014000000D40200088C15000814000020AC
:1015700064060000F00200080100000010000000F6
:0C158000000000000090D0030090D00399
:040000050800029954
:00000001FF
